{"abi":[{"type":"function","name":"depositForBurn","inputs":[{"name":"amount","type":"uint256","internalType":"uint256"},{"name":"destinationDomain","type":"uint32","internalType":"uint32"},{"name":"mintRecipient","type":"bytes32","internalType":"bytes32"},{"name":"burnToken","type":"address","internalType":"address"},{"name":"destinationCaller","type":"bytes32","internalType":"bytes32"},{"name":"maxFee","type":"uint256","internalType":"uint256"},{"name":"minFinalityThreshold","type":"uint32","internalType":"uint32"}],"outputs":[{"name":"nonce","type":"uint64","internalType":"uint64"}],"stateMutability":"nonpayable"},{"type":"function","name":"lastAmount","inputs":[],"outputs":[{"name":"","type":"uint256","internalType":"uint256"}],"stateMutability":"view"},{"type":"function","name":"lastBurnToken","inputs":[],"outputs":[{"name":"","type":"address","internalType":"address"}],"stateMutability":"view"},{"type":"function","name":"lastCaller","inputs":[],"outputs":[{"name":"","type":"address","internalType":"address"}],"stateMutability":"view"},{"type":"function","name":"lastDestinationCaller","inputs":[],"outputs":[{"name":"","type":"bytes32","internalType":"bytes32"}],"stateMutability":"view"},{"type":"function","name":"lastDestinationDomain","inputs":[],"outputs":[{"name":"","type":"uint32","internalType":"uint32"}],"stateMutability":"view"},{"type":"function","name":"lastMaxFee","inputs":[],"outputs":[{"name":"","type":"uint256","internalType":"uint256"}],"stateMutability":"view"},{"type":"function","name":"lastMinFinalityThreshold","inputs":[],"outputs":[{"name":"","type":"uint32","internalType":"uint32"}],"stateMutability":"view"},{"type":"function","name":"lastMintRecipient","inputs":[],"outputs":[{"name":"","type":"bytes32","internalType":"bytes32"}],"stateMutability":"view"},{"type":"function","name":"nextNonce","inputs":[],"outputs":[{"name":"","type":"uint64","internalType":"uint64"}],"stateMutability":"view"}],"bytecode":{"object":"0x6080604052600080546001600160401b031916600117905534801561002357600080fd5b506103ec806100336000396000f3fe608060405234801561001057600080fd5b506004361061009e5760003560e01c8063829a86d911610066578063829a86d9146101335780638e0250ee1461013c578063bbac0e0d14610168578063d69c3d3014610171578063e586d36c1461018557600080fd5b80632113522a146100a357806323fa6c81146100db578063563458f9146100f257806364301899146100fb5780637b06d2531461010e575b600080fd5b6007546100be9064010000000090046001600160a01b031681565b6040516001600160a01b0390911681526020015b60405180910390f35b6100e460055481565b6040519081526020016100d2565b6100e460035481565b6004546100be906001600160a01b031681565b60075461011e9063ffffffff1681565b60405163ffffffff90911681526020016100d2565b6100e460015481565b61014f61014a3660046102e0565b610195565b60405167ffffffffffffffff90911681526020016100d2565b6100e460065481565b60005461014f9067ffffffffffffffff1681565b60025461011e9063ffffffff1681565b6040516323b872dd60e01b8152336004820152306024820152604481018890526000906001600160a01b038616906323b872dd906064016020604051808303816000875af11580156101eb573d6000803e3d6000fd5b505050506040513d601f19601f8201168201806040525081019061020f9190610358565b5060018890556002805463ffffffff191663ffffffff898116919091179091556003879055600480546001600160a01b0319166001600160a01b03881617905560058590556006849055600780549184166001600160c01b03199092169190911733640100000000021790556000805467ffffffffffffffff16908061029483610381565b91906101000a81548167ffffffffffffffff021916908367ffffffffffffffff1602179055509050979650505050505050565b803563ffffffff811681146102db57600080fd5b919050565b600080600080600080600060e0888a0312156102fb57600080fd5b8735965061030b602089016102c7565b95506040880135945060608801356001600160a01b038116811461032e57600080fd5b93506080880135925060a0880135915061034a60c089016102c7565b905092959891949750929550565b60006020828403121561036a57600080fd5b8151801515811461037a57600080fd5b9392505050565b600067ffffffffffffffff8083168181036103ac57634e487b7160e01b600052601160045260246000fd5b600101939250505056fea26469706673582212202e664f28a2ab6ff2ade9e806cb14094e9960f4097f9ffff21ac1e73a2ef0fda964736f6c63430008160033","linkReferences":{}},"methodIdentifiers":{"depositForBurn(uint256,uint32,bytes32,address,bytes32,uint256,uint32)":"8e0250ee","lastAmount()":"829a86d9","lastBurnToken()":"64301899","lastCaller()":"2113522a","lastDestinationCaller()":"23fa6c81","lastDestinationDomain()":"e586d36c","lastMaxFee()":"bbac0e0d","lastMinFinalityThreshold()":"7b06d253","lastMintRecipient()":"563458f9","nextNonce()":"d69c3d30"},"id":36}