{"abi":[{"type":"constructor","inputs":[{"name":"_usdc","type":"address","internalType":"address"},{"name":"_cctp","type":"address","internalType":"address"},{"name":"_owner","type":"address","internalType":"address"}],"stateMutability":"nonpayable"},{"type":"function","name":"cancel","inputs":[{"name":"payoutId","type":"uint256","internalType":"uint256"}],"outputs":[],"stateMutability":"nonpayable"},{"type":"function","name":"cctp","inputs":[],"outputs":[{"name":"","type":"address","internalType":"contract ITokenMessengerV2"}],"stateMutability":"view"},{"type":"function","name":"claim","inputs":[{"name":"payoutId","type":"uint256","internalType":"uint256"},{"name":"destinationDomain","type":"uint32","internalType":"uint32"},{"name":"mintRecipient","type":"bytes32","internalType":"bytes32"},{"name":"maxFee","type":"uint256","internalType":"uint256"},{"name":"minFinalityThreshold","type":"uint32","internalType":"uint32"}],"outputs":[],"stateMutability":"nonpayable"},{"type":"function","name":"committed","inputs":[],"outputs":[{"name":"","type":"uint256","internalType":"uint256"}],"stateMutability":"view"},{"type":"function","name":"createPayout","inputs":[{"name":"trader","type":"address","internalType":"address"},{"name":"amount","type":"uint256","internalType":"uint256"},{"name":"referenceId","type":"bytes32","internalType":"bytes32"},{"name":"expiresAt","type":"uint64","internalType":"uint64"}],"outputs":[{"name":"payoutId","type":"uint256","internalType":"uint256"}],"stateMutability":"nonpayable"},{"type":"function","name":"createPayoutBatch","inputs":[{"name":"requests","type":"tuple[]","internalType":"struct PayoutEscrow.PayoutRequest[]","components":[{"name":"trader","type":"address","internalType":"address"},{"name":"amount","type":"uint256","internalType":"uint256"},{"name":"referenceId","type":"bytes32","internalType":"bytes32"},{"name":"expiresAt","type":"uint64","internalType":"uint64"}]}],"outputs":[{"name":"payoutIds","type":"uint256[]","internalType":"uint256[]"}],"stateMutability":"nonpayable"},{"type":"function","name":"depositTreasury","inputs":[{"name":"amount","type":"uint256","internalType":"uint256"}],"outputs":[],"stateMutability":"nonpayable"},{"type":"function","name":"getPayout","inputs":[{"name":"payoutId","type":"uint256","internalType":"uint256"}],"outputs":[{"name":"","type":"tuple","internalType":"struct PayoutEscrow.Payout","components":[{"name":"trader","type":"address","internalType":"address"},{"name":"amount","type":"uint256","internalType":"uint256"},{"name":"referenceId","type":"bytes32","internalType":"bytes32"},{"name":"expiresAt","type":"uint64","internalType":"uint64"},{"name":"status","type":"uint8","internalType":"enum PayoutEscrow.PayoutStatus"}]}],"stateMutability":"view"},{"type":"function","name":"nextPayoutId","inputs":[],"outputs":[{"name":"","type":"uint256","internalType":"uint256"}],"stateMutability":"view"},{"type":"function","name":"owner","inputs":[],"outputs":[{"name":"","type":"address","internalType":"address"}],"stateMutability":"view"},{"type":"function","name":"payouts","inputs":[{"name":"","type":"uint256","internalType":"uint256"}],"outputs":[{"name":"trader","type":"address","internalType":"address"},{"name":"amount","type":"uint256","internalType":"uint256"},{"name":"referenceId","type":"bytes32","internalType":"bytes32"},{"name":"expiresAt","type":"uint64","internalType":"uint64"},{"name":"status","type":"uint8","internalType":"enum PayoutEscrow.PayoutStatus"}],"stateMutability":"view"},{"type":"function","name":"renounceOwnership","inputs":[],"outputs":[],"stateMutability":"nonpayable"},{"type":"function","name":"transferOwnership","inputs":[{"name":"newOwner","type":"address","internalType":"address"}],"outputs":[],"stateMutability":"nonpayable"},{"type":"function","name":"unallocatedBalance","inputs":[],"outputs":[{"name":"","type":"uint256","internalType":"uint256"}],"stateMutability":"view"},{"type":"function","name":"usdc","inputs":[],"outputs":[{"name":"","type":"address","internalType":"contract IERC20"}],"stateMutability":"view"},{"type":"function","name":"withdrawTreasury","inputs":[{"name":"amount","type":"uint256","internalType":"uint256"}],"outputs":[],"stateMutability":"nonpayable"},{"type":"event","name":"OwnershipTransferred","inputs":[{"name":"previousOwner","type":"address","indexed":true,"internalType":"address"},{"name":"newOwner","type":"address","indexed":true,"internalType":"address"}],"anonymous":false},{"type":"event","name":"PayoutCancelled","inputs":[{"name":"payoutId","type":"uint256","indexed":true,"internalType":"uint256"}],"anonymous":false},{"type":"event","name":"PayoutClaimed","inputs":[{"name":"payoutId","type":"uint256","indexed":true,"internalType":"uint256"},{"name":"trader","type":"address","indexed":true,"internalType":"address"},{"name":"destinationDomain","type":"uint32","indexed":false,"internalType":"uint32"},{"name":"mintRecipient","type":"bytes32","indexed":false,"internalType":"bytes32"},{"name":"cctpNonce","type":"uint64","indexed":false,"internalType":"uint64"}],"anonymous":false},{"type":"event","name":"PayoutCreated","inputs":[{"name":"payoutId","type":"uint256","indexed":true,"internalType":"uint256"},{"name":"trader","type":"address","indexed":true,"internalType":"address"},{"name":"amount","type":"uint256","indexed":false,"internalType":"uint256"},{"name":"referenceId","type":"bytes32","indexed":true,"internalType":"bytes32"},{"name":"expiresAt","type":"uint64","indexed":false,"internalType":"uint64"}],"anonymous":false},{"type":"event","name":"TreasuryDeposited","inputs":[{"name":"from","type":"address","indexed":true,"internalType":"address"},{"name":"amount","type":"uint256","indexed":false,"internalType":"uint256"}],"anonymous":false},{"type":"event","name":"TreasuryWithdrawn","inputs":[{"name":"to","type":"address","indexed":true,"internalType":"address"},{"name":"amount","type":"uint256","indexed":false,"internalType":"uint256"}],"anonymous":false},{"type":"error","name":"ExpiryInPast","inputs":[]},{"type":"error","name":"InsufficientUnallocatedBalance","inputs":[]},{"type":"error","name":"NotTheTrader","inputs":[]},{"type":"error","name":"OwnableInvalidOwner","inputs":[{"name":"owner","type":"address","internalType":"address"}]},{"type":"error","name":"OwnableUnauthorizedAccount","inputs":[{"name":"account","type":"address","internalType":"address"}]},{"type":"error","name":"PayoutNotExpired","inputs":[]},{"type":"error","name":"PayoutNotFound","inputs":[]},{"type":"error","name":"PayoutNotPending","inputs":[]},{"type":"error","name":"ReentrancyGuardReentrantCall","inputs":[]},{"type":"error","name":"SafeERC20FailedOperation","inputs":[{"name":"token","type":"address","internalType":"address"}]},{"type":"error","name":"ZeroAddress","inputs":[]},{"type":"error","name":"ZeroAmount","inputs":[]}],"bytecode":{"object":"0x60c060405260016003553480156200001657600080fd5b50604051620015163803806200151683398101604081905262000039916200014f565b806001600160a01b0381166200006957604051631e4fbdf760e01b81526000600482015260240160405180910390fd5b6200007481620000e2565b50600180556001600160a01b03831615806200009757506001600160a01b038216155b80620000aa57506001600160a01b038116155b15620000c95760405163d92e233d60e01b815260040160405180910390fd5b506001600160a01b039182166080521660a05262000199565b600080546001600160a01b038381166001600160a01b0319831681178455604051919092169283917f8be0079c531659141344cd1fd0a4f28419497f9722a3daafe3b4186f6b6457e09190a35050565b80516001600160a01b03811681146200014a57600080fd5b919050565b6000806000606084860312156200016557600080fd5b620001708462000132565b9250620001806020850162000132565b9150620001906040850162000132565b90509250925092565b60805160a051611326620001f0600039600081816102900152818161088701526109200152600081816101ce01528181610445015281816106e401528181610865015281816108de0152610a3b01526113266000f3fe608060405234801561001057600080fd5b50600436106101005760003560e01c80638da5cb5b11610097578063bd12240a11610066578063bd12240a14610278578063e3329e321461028b578063f2fde38b146102b2578063f3f9d848146102c557600080fd5b80638da5cb5b146102435780639583612e146102545780639b6b96641461025c578063b23dfb781461026557600080fd5b80633e413bee116100d35780633e413bee146101c95780633e56f9f91461020857806340e58ee514610228578063715018a61461023b57600080fd5b8063038d36b01461010557806311f1fc991461012e57806329652e86146101435780633981cc3e146101a8575b600080fd5b610118610113366004610f7e565b6102ce565b6040516101259190610ff2565b60405180910390f35b61014161013c366004611036565b6103e7565b005b610197610151366004611036565b60046020526000908152604090208054600182015460028301546003909301546001600160a01b039092169290916001600160401b03811690600160401b900460ff1685565b604051610125959493929190611087565b6101bb6101b63660046110fc565b6104a5565b604051908152602001610125565b6101f07f000000000000000000000000000000000000000000000000000000000000000081565b6040516001600160a01b039091168152602001610125565b61021b610216366004611036565b6104c4565b6040516101259190611144565b610141610236366004611036565b610584565b6101416106ac565b6000546001600160a01b03166101f0565b6101bb6106c0565b6101bb60025481565b6101416102733660046111aa565b61075e565b610141610286366004611036565b610a05565b6101f07f000000000000000000000000000000000000000000000000000000000000000081565b6101416102c03660046111fa565b610a95565b6101bb60035481565b60606102d8610ad8565b81806001600160401b038111156102f1576102f161121c565b60405190808252806020026020018201604052801561031a578160200160208202803683370190505b50915060005b818110156103df576103ba85858381811061033d5761033d611232565b61035392602060809092020190810191506111fa565b86868481811061036557610365611232565b9050608002016020013587878581811061038157610381611232565b9050608002016040013588888681811061039d5761039d611232565b90506080020160600160208101906103b59190611248565b610b05565b8382815181106103cc576103cc611232565b6020908102919091010152600101610320565b505092915050565b6103ef610ad8565b8060000361041057604051631f2a200560e01b815260040160405180910390fd5b6104186106c0565b81111561043857604051630e411be360e21b815260040160405180910390fd5b61046c6001600160a01b037f0000000000000000000000000000000000000000000000000000000000000000163383610d0f565b60405181815233907f41fdd680478135993bc53fb2ffaf9560951b57ef62ff6badd02b61e018b4f17f906020015b60405180910390a250565b60006104af610ad8565b6104bb85858585610b05565b95945050505050565b6104f36040805160a0810182526000808252602082018190529181018290526060810182905290608082015290565b600082815260046020908152604091829020825160a08101845281546001600160a01b031681526001820154928101929092526002810154928201929092526003808301546001600160401b03811660608401529192916080840191600160401b90910460ff169081111561056a5761056a61104f565b600381111561057b5761057b61104f565b90525092915050565b61058c610ad8565b600081815260046020526040812090600382810154600160401b900460ff16908111156105bb576105bb61104f565b036105d957604051631c4ba4f560e31b815260040160405180910390fd5b6001600382810154600160401b900460ff16908111156105fb576105fb61104f565b146106195760405163053e09f760e21b815260040160405180910390fd5b60038101546001600160401b031642101561064757604051630ccaf19160e41b815260040160405180910390fd5b60038101805460ff60401b19166803000000000000000017905560018101546002805460009061067890849061127b565b909155505060405182907fb87dde7d9d6b89ac095bada8608cb8075ff1775f20c2b832c46eee360447b2ab90600090a25050565b6106b4610ad8565b6106be6000610d73565b565b6002546040516370a0823160e01b8152306004820152600091906001600160a01b037f000000000000000000000000000000000000000000000000000000000000000016906370a0823190602401602060405180830381865afa15801561072b573d6000803e3d6000fd5b505050506040513d601f19601f8201168201806040525081019061074f919061128e565b610759919061127b565b905090565b610766610dc3565b600085815260046020526040812090600382810154600160401b900460ff16908111156107955761079561104f565b036107b357604051631c4ba4f560e31b815260040160405180910390fd5b6001600382810154600160401b900460ff16908111156107d5576107d561104f565b146107f35760405163053e09f760e21b815260040160405180910390fd5b80546001600160a01b0316331461081d5760405163441f2c4360e11b815260040160405180910390fd5b60038101805460ff60401b19166802000000000000000017905560018101546002805460009061084e90849061127b565b909155505060018101546108ac6001600160a01b037f0000000000000000000000000000000000000000000000000000000000000000167f000000000000000000000000000000000000000000000000000000000000000083610ded565b604051634701287760e11b81526004810182905263ffffffff8781166024830152604482018790526001600160a01b037f00000000000000000000000000000000000000000000000000000000000000008116606484015260006084840181905260a4840188905291861660c484015290917f000000000000000000000000000000000000000000000000000000000000000090911690638e0250ee9060e4016020604051808303816000875af115801561096b573d6000803e3d6000fd5b505050506040513d601f19601f8201168201806040525081019061098f91906112a7565b83546040805163ffffffff8b168152602081018a90526001600160401b038416918101919091529192506001600160a01b03169089907fe897fc5d2807144ea5a8a65c2868ee516c0b7b3f85f3164bf1682afa346c02d59060600160405180910390a35050506109fe60018055565b5050505050565b610a0d610ad8565b80600003610a2e57604051631f2a200560e01b815260040160405180910390fd5b610a636001600160a01b037f000000000000000000000000000000000000000000000000000000000000000016333084610e83565b60405181815233907f8283e6b33f7f1cfc32820a5fd82cd9e5224d98c14133977f1e7902ce920e51ce9060200161049a565b610a9d610ad8565b6001600160a01b038116610acc57604051631e4fbdf760e01b8152600060048201526024015b60405180910390fd5b610ad581610d73565b50565b6000546001600160a01b031633146106be5760405163118cdaa760e01b8152336004820152602401610ac3565b60006001600160a01b038516610b2e5760405163d92e233d60e01b815260040160405180910390fd5b83600003610b4f57604051631f2a200560e01b815260040160405180910390fd5b42826001600160401b031611610b785760405163079955a160e41b815260040160405180910390fd5b610b806106c0565b841115610ba057604051630e411be360e21b815260040160405180910390fd5b60038054906000610bb0836112c4565b9190505590506040518060a00160405280866001600160a01b03168152602001858152602001848152602001836001600160401b0316815260200160016003811115610bfe57610bfe61104f565b9052600082815260046020908152604091829020835181546001600160a01b039091166001600160a01b03199091161781559083015160018201559082015160028201556060820151600380830180546001600160401b0390931667ffffffffffffffff19841681178255608086015193919268ffffffffffffffffff199092161790600160401b908490811115610c9857610c9861104f565b02179055509050508360026000828254610cb291906112dd565b9091555050604080518581526001600160401b038416602082015284916001600160a01b0388169184917f2dc52a86ce84f4dbffba757b4b6a83b6a2554d8429743a5e6f31bc3bf0d5ae26910160405180910390a4949350505050565b6040516001600160a01b03838116602483015260448201839052610d6e91859182169063a9059cbb906064015b604051602081830303815290604052915060e01b6020820180516001600160e01b038381831617835250505050610ebc565b505050565b600080546001600160a01b038381166001600160a01b0319831681178455604051919092169283917f8be0079c531659141344cd1fd0a4f28419497f9722a3daafe3b4186f6b6457e09190a35050565b600260015403610de657604051633ee5aeb560e01b815260040160405180910390fd5b6002600155565b604080516001600160a01b038416602482015260448082018490528251808303909101815260649091019091526020810180516001600160e01b031663095ea7b360e01b179052610e3e8482610f2d565b610e7d576040516001600160a01b03848116602483015260006044830152610e7391869182169063095ea7b390606401610d3c565b610e7d8482610ebc565b50505050565b6040516001600160a01b038481166024830152838116604483015260648201839052610e7d9186918216906323b872dd90608401610d3c565b600080602060008451602086016000885af180610edf576040513d6000823e3d81fd5b50506000513d91508115610ef7578060011415610f04565b6001600160a01b0384163b155b15610e7d57604051635274afe760e01b81526001600160a01b0385166004820152602401610ac3565b6000806000806020600086516020880160008a5af192503d91506000519050828015610f7257508115610f635780600114610f72565b6000866001600160a01b03163b115b93505050505b92915050565b60008060208385031215610f9157600080fd5b82356001600160401b0380821115610fa857600080fd5b818501915085601f830112610fbc57600080fd5b813581811115610fcb57600080fd5b8660208260071b8501011115610fe057600080fd5b60209290920196919550909350505050565b6020808252825182820181905260009190848201906040850190845b8181101561102a5783518352928401929184019160010161100e565b50909695505050505050565b60006020828403121561104857600080fd5b5035919050565b634e487b7160e01b600052602160045260246000fd5b6004811061108357634e487b7160e01b600052602160045260246000fd5b9052565b6001600160a01b038616815260208101859052604081018490526001600160401b038316606082015260a081016110c16080830184611065565b9695505050505050565b80356001600160a01b03811681146110e257600080fd5b919050565b6001600160401b0381168114610ad557600080fd5b6000806000806080858703121561111257600080fd5b61111b856110cb565b935060208501359250604085013591506060850135611139816110e7565b939692955090935050565b81516001600160a01b0316815260208083015190820152604080830151908201526060808301516001600160401b03169082015260808083015160a083019161118f90840182611065565b5092915050565b803563ffffffff811681146110e257600080fd5b600080600080600060a086880312156111c257600080fd5b853594506111d260208701611196565b935060408601359250606086013591506111ee60808701611196565b90509295509295909350565b60006020828403121561120c57600080fd5b611215826110cb565b9392505050565b634e487b7160e01b600052604160045260246000fd5b634e487b7160e01b600052603260045260246000fd5b60006020828403121561125a57600080fd5b8135611215816110e7565b634e487b7160e01b600052601160045260246000fd5b81810381811115610f7857610f78611265565b6000602082840312156112a057600080fd5b5051919050565b6000602082840312156112b957600080fd5b8151611215816110e7565b6000600182016112d6576112d6611265565b5060010190565b80820180821115610f7857610f7861126556fea26469706673582212207faf6e559a6e96c4745f594d2c8578b75199e8133cbfba84a43a65a38a510d8d64736f6c63430008160033","linkReferences":{}},"methodIdentifiers":{"cancel(uint256)":"40e58ee5","cctp()":"e3329e32","claim(uint256,uint32,bytes32,uint256,uint32)":"b23dfb78","committed()":"9b6b9664","createPayout(address,uint256,bytes32,uint64)":"3981cc3e","createPayoutBatch((address,uint256,bytes32,uint64)[])":"038d36b0","depositTreasury(uint256)":"bd12240a","getPayout(uint256)":"3e56f9f9","nextPayoutId()":"f3f9d848","owner()":"8da5cb5b","payouts(uint256)":"29652e86","renounceOwnership()":"715018a6","transferOwnership(address)":"f2fde38b","unallocatedBalance()":"9583612e","usdc()":"3e413bee","withdrawTreasury(uint256)":"11f1fc99"},"id":11}